{
  "contractName": "Auction",
  "abi": [
    {
      "inputs": [],
      "stateMutability": "nonpayable",
      "type": "constructor"
    },
    {
      "inputs": [],
      "name": "putBid",
      "outputs": [],
      "stateMutability": "payable",
      "type": "function"
    },
    {
      "inputs": [
        {
          "internalType": "address",
          "name": "_address",
          "type": "address"
        }
      ],
      "name": "getBidderBid",
      "outputs": [
        {
          "internalType": "uint256",
          "name": "",
          "type": "uint256"
        }
      ],
      "stateMutability": "view",
      "type": "function"
    },
    {
      "inputs": [],
      "name": "HighestBidder",
      "outputs": [
        {
          "internalType": "address",
          "name": "",
          "type": "address"
        }
      ],
      "stateMutability": "view",
      "type": "function"
    },
    {
      "inputs": [
        {
          "internalType": "uint256",
          "name": "_endTime",
          "type": "uint256"
        }
      ],
      "name": "putEndTime",
      "outputs": [],
      "stateMutability": "nonpayable",
      "type": "function"
    },
    {
      "inputs": [
        {
          "internalType": "address payable",
          "name": "_address",
          "type": "address"
        }
      ],
      "name": "withdrawBid",
      "outputs": [],
      "stateMutability": "nonpayable",
      "type": "function"
    }
  ],
  "bytecode": "0x6080604052426004556000600660006101000a81548160ff02191690831515021790555034801561002f57600080fd5b5033600360006101000a81548173ffffffffffffffffffffffffffffffffffffffff021916908373ffffffffffffffffffffffffffffffffffffffff1602179055506107ef806100806000396000f3fe60806040526004361061004a5760003560e01c80634ede36481461004f5780637f6a9d5014610078578063996657af146100a1578063e71ba2bd146100cc578063f5cc772a14610109575b600080fd5b34801561005b57600080fd5b506100766004803603810190610071919061046a565b610113565b005b34801561008457600080fd5b5061009f600480360381019061009a91906104cd565b6101e3565b005b3480156100ad57600080fd5b506100b66101ed565b6040516100c3919061051b565b60405180910390f35b3480156100d857600080fd5b506100f360048036038101906100ee9190610562565b610217565b604051610100919061059e565b60405180910390f35b61011161025f565b005b60008060008373ffffffffffffffffffffffffffffffffffffffff1673ffffffffffffffffffffffffffffffffffffffff1681526020019081526020016000205411156101e0578073ffffffffffffffffffffffffffffffffffffffff166108fc6000808473ffffffffffffffffffffffffffffffffffffffff1673ffffffffffffffffffffffffffffffffffffffff168152602001908152602001600020549081150290604051600060405180830381858888f193505050501580156101de573d6000803e3d6000fd5b505b50565b8060058190555050565b6000600260009054906101000a900473ffffffffffffffffffffffffffffffffffffffff16905090565b60008060008373ffffffffffffffffffffffffffffffffffffffff1673ffffffffffffffffffffffffffffffffffffffff168152602001908152602001600020549050919050565b6000346000803373ffffffffffffffffffffffffffffffffffffffff1673ffffffffffffffffffffffffffffffffffffffff168152602001908152602001600020546102ab91906105e8565b9050600034116102f0576040517f08c379a00000000000000000000000000000000000000000000000000000000081526004016102e79061069b565b60405180910390fd5b600554421115610335576040517f08c379a000000000000000000000000000000000000000000000000000000000815260040161032c90610707565b60405180910390fd5b6001548111610379576040517f08c379a000000000000000000000000000000000000000000000000000000000815260040161037090610799565b60405180910390fd5b806000803373ffffffffffffffffffffffffffffffffffffffff1673ffffffffffffffffffffffffffffffffffffffff168152602001908152602001600020819055508060018190555033600260006101000a81548173ffffffffffffffffffffffffffffffffffffffff021916908373ffffffffffffffffffffffffffffffffffffffff16021790555050565b600080fd5b600073ffffffffffffffffffffffffffffffffffffffff82169050919050565b60006104378261040c565b9050919050565b6104478161042c565b811461045257600080fd5b50565b6000813590506104648161043e565b92915050565b6000602082840312156104805761047f610407565b5b600061048e84828501610455565b91505092915050565b6000819050919050565b6104aa81610497565b81146104b557600080fd5b50565b6000813590506104c7816104a1565b92915050565b6000602082840312156104e3576104e2610407565b5b60006104f1848285016104b8565b91505092915050565b60006105058261040c565b9050919050565b610515816104fa565b82525050565b6000602082019050610530600083018461050c565b92915050565b61053f816104fa565b811461054a57600080fd5b50565b60008135905061055c81610536565b92915050565b60006020828403121561057857610577610407565b5b60006105868482850161054d565b91505092915050565b61059881610497565b82525050565b60006020820190506105b3600083018461058f565b92915050565b7f4e487b7100000000000000000000000000000000000000000000000000000000600052601160045260246000fd5b60006105f382610497565b91506105fe83610497565b9250827fffffffffffffffffffffffffffffffffffffffffffffffffffffffffffffffff03821115610633576106326105b9565b5b828201905092915050565b600082825260208201905092915050565b7f56616c75652043616e6e6f74206265205a65726f000000000000000000000000600082015250565b600061068560148361063e565b91506106908261064f565b602082019050919050565b600060208201905081810360008301526106b481610678565b9050919050565b7f41756e6374696f6e20697320656e646564000000000000000000000000000000600082015250565b60006106f160118361063e565b91506106fc826106bb565b602082019050919050565b60006020820190508181036000830152610720816106e4565b9050919050565b7f596f752063616e206e6f7420626574206c6573736572207468616e206869676860008201527f6573742042696400000000000000000000000000000000000000000000000000602082015250565b600061078360278361063e565b915061078e82610727565b604082019050919050565b600060208201905081810360008301526107b281610776565b905091905056fea2646970667358221220d04320abcd717eb02ae93535071ffce146d8930b1a7e95d00019c1f3cf24a10964736f6c634300080b0033",
  "immutableReferences": {},
  "source": "// SPDX-License-Identifier: GPL-3.0\r\n\r\npragma solidity >0.4.0 <0.9.0;\r\n\r\ncontract Auction {\r\n    mapping(address => uint) biddersData;\r\n    uint highestBidAmount;\r\n    address highestBidder;\r\n    address owner;\r\n    uint startTime = block.timestamp;\r\n    uint endTime;\r\n    bool auctionEnded = false;\r\n    constructor(){\r\n        owner = msg.sender;\r\n    }\r\n\r\n    //put new bid\r\n    function putBid() public payable{\r\n        //Verify value is not Zero\r\n        uint calculateAmount = biddersData[msg.sender] + msg.value;\r\n        \r\n        require(msg.value > 0 , \"Value Cannot be Zero\");\r\n\r\n        //Check session is not finished\r\n        require(block.timestamp <= endTime , \"Aunction is ended\");\r\n\r\n      \r\n        //Check if Highest Bid \r\n        require(calculateAmount > highestBidAmount , \"You can not bet lesser than highest Bid\");\r\n        biddersData[msg.sender] = calculateAmount;\r\n        highestBidAmount = calculateAmount;\r\n        highestBidder = msg.sender;\r\n\r\n    } \r\n\r\n    //get contract balance (only for testing)\r\n    function getBidderBid(address _address) public view returns(uint){\r\n        return biddersData[_address];\r\n    }\r\n\r\n    //get Highest Bid Amount\r\n    function HighestBidder() public view returns(address){\r\n        return highestBidder;\r\n    }\r\n\r\n    //end time\r\n    function putEndTime(uint _endTime) public {\r\n        endTime = _endTime;\r\n    }\r\n\r\n    //withdraw bid\r\n    function withdrawBid(address payable _address) public {\r\n        if(biddersData[_address] > 0){\r\n            _address.transfer(biddersData[_address]);\r\n        }\r\n    }\r\n\r\n}",
  "sourcePath": "D:\\Nepster\\smartContract\\contracts\\Auction.sol",
  "compiler": {
    "name": "solc",
    "version": "0.8.11+commit.d7f03943.Emscripten.clang"
  },
  "schemaVersion": "3.4.4",
  "updatedAt": "2022-06-23T06:34:57.022Z",
  "devdoc": {
    "kind": "dev",
    "methods": {},
    "version": 1
  },
  "userdoc": {
    "kind": "user",
    "methods": {},
    "version": 1
  }
}