{
  "contractName": "Escrow",
  "abi": [
    {
      "inputs": [
        {
          "internalType": "address",
          "name": "_helpSeeker",
          "type": "address"
        },
        {
          "internalType": "address payable",
          "name": "_helper",
          "type": "address"
        }
      ],
      "stateMutability": "nonpayable",
      "type": "constructor"
    },
    {
      "inputs": [],
      "name": "currState",
      "outputs": [
        {
          "internalType": "enum Escrow.State",
          "name": "",
          "type": "uint8"
        }
      ],
      "stateMutability": "view",
      "type": "function"
    },
    {
      "inputs": [],
      "name": "helpSeeker",
      "outputs": [
        {
          "internalType": "address",
          "name": "",
          "type": "address"
        }
      ],
      "stateMutability": "view",
      "type": "function"
    },
    {
      "inputs": [],
      "name": "helper",
      "outputs": [
        {
          "internalType": "address payable",
          "name": "",
          "type": "address"
        }
      ],
      "stateMutability": "view",
      "type": "function"
    },
    {
      "inputs": [],
      "name": "deposit",
      "outputs": [],
      "stateMutability": "payable",
      "type": "function"
    },
    {
      "inputs": [],
      "name": "confirmDelivery",
      "outputs": [],
      "stateMutability": "nonpayable",
      "type": "function"
    }
  ],
  "bytecode": "0x608060405234801561001057600080fd5b5060405161089d38038061089d8339818101604052810190610032919061015c565b81600060016101000a81548173ffffffffffffffffffffffffffffffffffffffff021916908373ffffffffffffffffffffffffffffffffffffffff16021790555080600160006101000a81548173ffffffffffffffffffffffffffffffffffffffff021916908373ffffffffffffffffffffffffffffffffffffffff160217905550505061019c565b600080fd5b600073ffffffffffffffffffffffffffffffffffffffff82169050919050565b60006100eb826100c0565b9050919050565b6100fb816100e0565b811461010657600080fd5b50565b600081519050610118816100f2565b92915050565b6000610129826100c0565b9050919050565b6101398161011e565b811461014457600080fd5b50565b60008151905061015681610130565b92915050565b60008060408385031215610173576101726100bb565b5b600061018185828601610109565b925050602061019285828601610147565b9150509250929050565b6106f2806101ab6000396000f3fe60806040526004361061004a5760003560e01c80635e10177b1461004f57806363b0e66a14610066578063afe0104314610091578063d0e30db0146100bc578063dcce89ae146100c6575b600080fd5b34801561005b57600080fd5b506100646100f1565b005b34801561007257600080fd5b5061007b61028a565b6040516100889190610458565b60405180910390f35b34801561009d57600080fd5b506100a66102b0565b6040516100b391906104ea565b60405180910390f35b6100c46102c1565b005b3480156100d257600080fd5b506100db6103f1565b6040516100e89190610526565b60405180910390f35b600060019054906101000a900473ffffffffffffffffffffffffffffffffffffffff1673ffffffffffffffffffffffffffffffffffffffff163373ffffffffffffffffffffffffffffffffffffffff1614610181576040517f08c379a0000000000000000000000000000000000000000000000000000000008152600401610178906105c4565b60405180910390fd5b6001600281111561019557610194610473565b5b60008054906101000a900460ff1660028111156101b5576101b4610473565b5b146101f5576040517f08c379a00000000000000000000000000000000000000000000000000000000081526004016101ec90610630565b60405180910390fd5b600160009054906101000a900473ffffffffffffffffffffffffffffffffffffffff1673ffffffffffffffffffffffffffffffffffffffff166108fc479081150290604051600060405180830381858888f1935050505015801561025d573d6000803e3d6000fd5b5060026000806101000a81548160ff0219169083600281111561028357610282610473565b5b0217905550565b600160009054906101000a900473ffffffffffffffffffffffffffffffffffffffff1681565b60008054906101000a900460ff1681565b600060019054906101000a900473ffffffffffffffffffffffffffffffffffffffff1673ffffffffffffffffffffffffffffffffffffffff163373ffffffffffffffffffffffffffffffffffffffff1614610351576040517f08c379a0000000000000000000000000000000000000000000000000000000008152600401610348906105c4565b60405180910390fd5b6000600281111561036557610364610473565b5b60008054906101000a900460ff16600281111561038557610384610473565b5b146103c5576040517f08c379a00000000000000000000000000000000000000000000000000000000081526004016103bc9061069c565b60405180910390fd5b60016000806101000a81548160ff021916908360028111156103ea576103e9610473565b5b0217905550565b600060019054906101000a900473ffffffffffffffffffffffffffffffffffffffff1681565b600073ffffffffffffffffffffffffffffffffffffffff82169050919050565b600061044282610417565b9050919050565b61045281610437565b82525050565b600060208201905061046d6000830184610449565b92915050565b7f4e487b7100000000000000000000000000000000000000000000000000000000600052602160045260246000fd5b600381106104b3576104b2610473565b5b50565b60008190506104c4826104a2565b919050565b60006104d4826104b6565b9050919050565b6104e4816104c9565b82525050565b60006020820190506104ff60008301846104db565b92915050565b600061051082610417565b9050919050565b61052081610505565b82525050565b600060208201905061053b6000830184610517565b92915050565b600082825260208201905092915050565b7f4f6e6c792048656c70205365656b65722063616e2063616c6c2074686973206d60008201527f6574686f64000000000000000000000000000000000000000000000000000000602082015250565b60006105ae602583610541565b91506105b982610552565b604082019050919050565b600060208201905081810360008301526105dd816105a1565b9050919050565b7f43616e6e6f7420636f6e6669726d2048656c7000000000000000000000000000600082015250565b600061061a601383610541565b9150610625826105e4565b602082019050919050565b600060208201905081810360008301526106498161060d565b9050919050565b7f416c726561647920706169640000000000000000000000000000000000000000600082015250565b6000610686600c83610541565b915061069182610650565b602082019050919050565b600060208201905081810360008301526106b581610679565b905091905056fea2646970667358221220c0664d5a29080eba1a3c2d2fb38b80859caeb5534daf619b7f232632d502faa564736f6c634300080b0033",
  "immutableReferences": {},
  "source": "// SPDX-License-Identifier: GPL-3.0\r\n\r\npragma solidity >0.4.0 <0.9.0;\r\n\r\ncontract Escrow {\r\n    enum State { AWAITING_PAYMENT, AWAITING_DELIVERY, COMPLETE }\r\n    \r\n    State public currState;\r\n    \r\n    address public helpSeeker;\r\n    address payable public helper;\r\n    \r\n    modifier onlyHelpSeeker() {\r\n        require(msg.sender == helpSeeker, \"Only Help Seeker can call this method\");\r\n        _;\r\n    }\r\n    \r\n    constructor(address _helpSeeker, address payable _helper) public {\r\n        helpSeeker = _helpSeeker;\r\n        helper = _helper;\r\n    }\r\n    \r\n    function deposit() onlyHelpSeeker external payable {\r\n        require(currState == State.AWAITING_PAYMENT, \"Already paid\");\r\n        currState = State.AWAITING_DELIVERY;\r\n    }\r\n    \r\n    function confirmDelivery() onlyHelpSeeker external {\r\n        require(currState == State.AWAITING_DELIVERY, \"Cannot confirm Help\");\r\n        helper.transfer(address(this).balance);\r\n        currState = State.COMPLETE;\r\n    }\r\n}",
  "sourcePath": "D:\\Nepster\\smartContract\\contracts\\Escrow.sol",
  "compiler": {
    "name": "solc",
    "version": "0.8.11+commit.d7f03943.Emscripten.clang"
  },
  "schemaVersion": "3.4.4",
  "updatedAt": "2022-06-25T11:24:24.854Z",
  "devdoc": {
    "kind": "dev",
    "methods": {},
    "version": 1
  },
  "userdoc": {
    "kind": "user",
    "methods": {},
    "version": 1
  }
}